{"abi":[{"type":"constructor","inputs":[{"name":"_authority","type":"address","internalType":"address"},{"name":"_treasury","type":"address","internalType":"address payable"},{"name":"_houseFeeBasisPoints","type":"uint16","internalType":"uint16"},{"name":"_minBet","type":"uint256","internalType":"uint256"},{"name":"_waitingPhaseDuration","type":"uint64","internalType":"uint64"},{"name":"_vrfCoordinator","type":"address","internalType":"address"},{"name":"_subscriptionId","type":"uint256","internalType":"uint256"},{"name":"_keyHash","type":"bytes32","internalType":"bytes32"}],"stateMutability":"nonpayable"},{"type":"function","name":"acceptOwnership","inputs":[],"outputs":[],"stateMutability":"nonpayable"},{"type":"function","name":"authority","inputs":[],"outputs":[{"name":"","type":"address","internalType":"address"}],"stateMutability":"view"},{"type":"function","name":"betsLocked","inputs":[],"outputs":[{"name":"","type":"bool","internalType":"bool"}],"stateMutability":"view"},{"type":"function","name":"closeBettingWindow","inputs":[],"outputs":[],"stateMutability":"nonpayable"},{"type":"function","name":"createGame","inputs":[],"outputs":[],"stateMutability":"payable"},{"type":"function","name":"currentRoundId","inputs":[],"outputs":[{"name":"","type":"uint64","internalType":"uint64"}],"stateMutability":"view"},{"type":"function","name":"gameDurationConfig","inputs":[],"outputs":[{"name":"waitingPhaseDuration","type":"uint64","internalType":"uint64"}],"stateMutability":"view"},{"type":"function","name":"gameRounds","inputs":[{"name":"","type":"uint64","internalType":"uint64"}],"outputs":[{"name":"roundId","type":"uint64","internalType":"uint64"},{"name":"status","type":"uint8","internalType":"enum Domin8.GameStatus"},{"name":"startTimestamp","type":"uint64","internalType":"uint64"},{"name":"endTimestamp","type":"uint64","internalType":"uint64"},{"name":"totalPot","type":"uint256","internalType":"uint256"},{"name":"winner","type":"address","internalType":"address"},{"name":"randomnessFulfilled","type":"bool","internalType":"bool"},{"name":"vrfRequestId","type":"bytes32","internalType":"bytes32"}],"stateMutability":"view"},{"type":"function","name":"houseFeeBasisPoints","inputs":[],"outputs":[{"name":"","type":"uint16","internalType":"uint16"}],"stateMutability":"view"},{"type":"function","name":"minBet","inputs":[],"outputs":[{"name":"","type":"uint256","internalType":"uint256"}],"stateMutability":"view"},{"type":"function","name":"owner","inputs":[],"outputs":[{"name":"","type":"address","internalType":"address"}],"stateMutability":"view"},{"type":"function","name":"placeBet","inputs":[],"outputs":[],"stateMutability":"payable"},{"type":"function","name":"rawFulfillRandomWords","inputs":[{"name":"requestId","type":"uint256","internalType":"uint256"},{"name":"randomWords","type":"uint256[]","internalType":"uint256[]"}],"outputs":[],"stateMutability":"nonpayable"},{"type":"function","name":"s_roundToRandomWord","inputs":[{"name":"","type":"uint64","internalType":"uint64"}],"outputs":[{"name":"","type":"uint256","internalType":"uint256"}],"stateMutability":"view"},{"type":"function","name":"s_vrfCoordinator","inputs":[],"outputs":[{"name":"","type":"address","internalType":"contract IVRFCoordinatorV2Plus"}],"stateMutability":"view"},{"type":"function","name":"s_vrfRequestIdToRoundId","inputs":[{"name":"","type":"uint256","internalType":"uint256"}],"outputs":[{"name":"","type":"uint64","internalType":"uint64"}],"stateMutability":"view"},{"type":"function","name":"selectWinnerAndPayout","inputs":[],"outputs":[],"stateMutability":"nonpayable"},{"type":"function","name":"setCoordinator","inputs":[{"name":"_vrfCoordinator","type":"address","internalType":"address"}],"outputs":[],"stateMutability":"nonpayable"},{"type":"function","name":"transferOwnership","inputs":[{"name":"to","type":"address","internalType":"address"}],"outputs":[],"stateMutability":"nonpayable"},{"type":"function","name":"treasury","inputs":[],"outputs":[{"name":"","type":"address","internalType":"address payable"}],"stateMutability":"view"},{"type":"event","name":"BetPlaced","inputs":[{"name":"roundId","type":"uint64","indexed":true,"internalType":"uint64"},{"name":"player","type":"address","indexed":true,"internalType":"address"},{"name":"amount","type":"uint256","indexed":false,"internalType":"uint256"},{"name":"betCount","type":"uint256","indexed":false,"internalType":"uint256"},{"name":"totalPot","type":"uint256","indexed":false,"internalType":"uint256"},{"name":"endTimestamp","type":"uint64","indexed":false,"internalType":"uint64"},{"name":"isFirstBet","type":"bool","indexed":false,"internalType":"bool"}],"anonymous":false},{"type":"event","name":"CoordinatorSet","inputs":[{"name":"vrfCoordinator","type":"address","indexed":false,"internalType":"address"}],"anonymous":false},{"type":"event","name":"GameInitialized","inputs":[{"name":"roundId","type":"uint64","indexed":true,"internalType":"uint64"},{"name":"startTimestamp","type":"uint64","indexed":false,"internalType":"uint64"},{"name":"endTimestamp","type":"uint64","indexed":false,"internalType":"uint64"}],"anonymous":false},{"type":"event","name":"GameLocked","inputs":[{"name":"roundId","type":"uint64","indexed":true,"internalType":"uint64"},{"name":"finalBetCount","type":"uint256","indexed":false,"internalType":"uint256"},{"name":"totalPot","type":"uint256","indexed":false,"internalType":"uint256"},{"name":"vrfRequestId","type":"bytes32","indexed":false,"internalType":"bytes32"}],"anonymous":false},{"type":"event","name":"GameReset","inputs":[{"name":"oldRoundId","type":"uint64","indexed":false,"internalType":"uint64"},{"name":"newRoundId","type":"uint64","indexed":false,"internalType":"uint64"}],"anonymous":false},{"type":"event","name":"OwnershipTransferRequested","inputs":[{"name":"from","type":"address","indexed":true,"internalType":"address"},{"name":"to","type":"address","indexed":true,"internalType":"address"}],"anonymous":false},{"type":"event","name":"OwnershipTransferred","inputs":[{"name":"from","type":"address","indexed":true,"internalType":"address"},{"name":"to","type":"address","indexed":true,"internalType":"address"}],"anonymous":false},{"type":"event","name":"RandomnessFulfilled","inputs":[{"name":"requestId","type":"uint256","indexed":true,"internalType":"uint256"},{"name":"roundId","type":"uint64","indexed":true,"internalType":"uint64"}],"anonymous":false},{"type":"event","name":"RandomnessRequested","inputs":[{"name":"requestId","type":"uint256","indexed":true,"internalType":"uint256"},{"name":"roundId","type":"uint64","indexed":true,"internalType":"uint64"}],"anonymous":false},{"type":"event","name":"WinnerSelected","inputs":[{"name":"roundId","type":"uint64","indexed":true,"internalType":"uint64"},{"name":"winner","type":"address","indexed":true,"internalType":"address"},{"name":"totalPot","type":"uint256","indexed":false,"internalType":"uint256"},{"name":"houseFee","type":"uint256","indexed":false,"internalType":"uint256"},{"name":"winnerPayout","type":"uint256","indexed":false,"internalType":"uint256"}],"anonymous":false},{"type":"error","name":"ArithmeticOverflow","inputs":[]},{"type":"error","name":"BetTooSmall","inputs":[]},{"type":"error","name":"BetsLocked","inputs":[]},{"type":"error","name":"BettingWindowClosed","inputs":[]},{"type":"error","name":"BettingWindowStillOpen","inputs":[]},{"type":"error","name":"InvalidGameStatus","inputs":[]},{"type":"error","name":"NoPlayers","inputs":[]},{"type":"error","name":"OnlyCoordinatorCanFulfill","inputs":[{"name":"have","type":"address","internalType":"address"},{"name":"want","type":"address","internalType":"address"}]},{"type":"error","name":"OnlyOwnerOrCoordinator","inputs":[{"name":"have","type":"address","internalType":"address"},{"name":"owner","type":"address","internalType":"address"},{"name":"coordinator","type":"address","internalType":"address"}]},{"type":"error","name":"RandomnessNotFulfilled","inputs":[]},{"type":"error","name":"TransferFailed","inputs":[]},{"type":"error","name":"Unauthorized","inputs":[]},{"type":"error","name":"ZeroAddress","inputs":[]}],"bytecode":{"object":"0x60c0604052620186a060095f6101000a81548163ffffffff021916908363ffffffff160217905550348015610032575f5ffd5b506040516132e93803806132e9833981810160405281019061005491906105dc565b8233805f5f73ffffffffffffffffffffffffffffffffffffffff168273ffffffffffffffffffffffffffffffffffffffff16036100c6576040517f08c379a00000000000000000000000000000000000000000000000000000000081526004016100bd906106e7565b60405180910390fd5b815f5f6101000a81548173ffffffffffffffffffffffffffffffffffffffff021916908373ffffffffffffffffffffffffffffffffffffffff1602179055505f73ffffffffffffffffffffffffffffffffffffffff168173ffffffffffffffffffffffffffffffffffffffff1614610148576101478161033e60201b60201c565b5b5050505f73ffffffffffffffffffffffffffffffffffffffff168173ffffffffffffffffffffffffffffffffffffffff16036101b0576040517fd92e233d00000000000000000000000000000000000000000000000000000000815260040160405180910390fd5b8060025f6101000a81548173ffffffffffffffffffffffffffffffffffffffff021916908373ffffffffffffffffffffffffffffffffffffffff160217905550508760035f6101000a81548173ffffffffffffffffffffffffffffffffffffffff021916908373ffffffffffffffffffffffffffffffffffffffff1602179055508660045f6101000a81548173ffffffffffffffffffffffffffffffffffffffff021916908373ffffffffffffffffffffffffffffffffffffffff16021790555085600460146101000a81548161ffff021916908361ffff1602179055508460058190555060405180602001604052808567ffffffffffffffff1681525060065f820151815f015f6101000a81548167ffffffffffffffff021916908367ffffffffffffffff16021790555090505081608081815250508060a081815250505f600760016101000a81548167ffffffffffffffff021916908367ffffffffffffffff1602179055505f60075f6101000a81548160ff021916908315150217905550505050505050505061076d565b3373ffffffffffffffffffffffffffffffffffffffff168173ffffffffffffffffffffffffffffffffffffffff16036103ac576040517f08c379a00000000000000000000000000000000000000000000000000000000081526004016103a39061074f565b60405180910390fd5b8060015f6101000a81548173ffffffffffffffffffffffffffffffffffffffff021916908373ffffffffffffffffffffffffffffffffffffffff1602179055508073ffffffffffffffffffffffffffffffffffffffff165f5f9054906101000a900473ffffffffffffffffffffffffffffffffffffffff1673ffffffffffffffffffffffffffffffffffffffff167fed8889f560326eb138920d842192f0eb3dd22b4f139c87a2c57538e05bae127860405160405180910390a350565b5f5ffd5b5f73ffffffffffffffffffffffffffffffffffffffff82169050919050565b5f6104968261046d565b9050919050565b6104a68161048c565b81146104b0575f5ffd5b50565b5f815190506104c18161049d565b92915050565b5f6104d18261046d565b9050919050565b6104e1816104c7565b81146104eb575f5ffd5b50565b5f815190506104fc816104d8565b92915050565b5f61ffff82169050919050565b61051881610502565b8114610522575f5ffd5b50565b5f815190506105338161050f565b92915050565b5f819050919050565b61054b81610539565b8114610555575f5ffd5b50565b5f8151905061056681610542565b92915050565b5f67ffffffffffffffff82169050919050565b6105888161056c565b8114610592575f5ffd5b50565b5f815190506105a38161057f565b92915050565b5f819050919050565b6105bb816105a9565b81146105c5575f5ffd5b50565b5f815190506105d6816105b2565b92915050565b5f5f5f5f5f5f5f5f610100898b0312156105f9576105f8610469565b5b5f6106068b828c016104b3565b98505060206106178b828c016104ee565b97505060406106288b828c01610525565b96505060606106398b828c01610558565b955050608061064a8b828c01610595565b94505060a061065b8b828c016104b3565b93505060c061066c8b828c01610558565b92505060e061067d8b828c016105c8565b9150509295985092959890939650565b5f82825260208201905092915050565b7f43616e6e6f7420736574206f776e657220746f207a65726f00000000000000005f82015250565b5f6106d160188361068d565b91506106dc8261069d565b602082019050919050565b5f6020820190508181035f8301526106fe816106c5565b9050919050565b7f43616e6e6f74207472616e7366657220746f2073656c660000000000000000005f82015250565b5f61073960178361068d565b915061074482610705565b602082019050919050565b5f6020820190508181035f8301526107668161072d565b9050919050565b60805160a051612b5b61078e5f395f6111b401525f6111da0152612b5b5ff3fe60806040526004361061011e575f3560e01c80639619367d1161009f578063ace83eae11610063578063ace83eae14610375578063bf7e214f1461039f578063c259be9b146103c9578063f2fde38b146103f3578063f90f45601461041b5761011e565b80639619367d1461027f5780639bf7fea2146102a95780639cbe5efd146102e55780639eccacf61461030f578063a9e5315e146103395761011e565b80637255d729116100e65780637255d729146101ca57806379ba5097146101d45780638245acea146101ea5780638da5cb5b1461022d5780638ea98117146102575761011e565b80631fe543e3146101225780633614cadf1461014a5780635dcb9e671461017457806361d027b31461018a578063671fe725146101b4575b5f5ffd5b34801561012d575f5ffd5b5061014860048036038101906101439190611ff1565b610425565b005b348015610155575f5ffd5b5061015e6104e9565b60405161016b9190612070565b60405180910390f35b34801561017f575f5ffd5b50610188610507565b005b348015610195575f5ffd5b5061019e610c01565b6040516101ab91906120c8565b60405180910390f35b3480156101bf575f5ffd5b506101c8610c26565b005b6101d2610ea9565b005b3480156101df575f5ffd5b506101e861139f565b005b3480156101f5575f5ffd5b50610210600480360381019061020b919061210b565b61152e565b60405161022498979695949392919061220a565b60405180910390f35b348015610238575f5ffd5b506102416115e3565b60405161024e9190612286565b60405180910390f35b348015610262575f5ffd5b5061027d600480360381019061027891906122c9565b61160a565b005b34801561028a575f5ffd5b506102936117e7565b6040516102a091906122f4565b60405180910390f35b3480156102b4575f5ffd5b506102cf60048036038101906102ca919061210b565b6117ed565b6040516102dc91906122f4565b60405180910390f35b3480156102f0575f5ffd5b506102f9611802565b6040516103069190612070565b60405180910390f35b34801561031a575f5ffd5b5061032361181c565b6040516103309190612368565b60405180910390f35b348015610344575f5ffd5b5061035f600480360381019061035a9190612381565b611841565b60405161036c9190612070565b60405180910390f35b348015610380575f5ffd5b50610389611865565b60405161039691906123c8565b60405180910390f35b3480156103aa575f5ffd5b506103b3611879565b6040516103c09190612286565b60405180910390f35b3480156103d4575f5ffd5b506103dd61189e565b6040516103ea91906123e1565b60405180910390f35b3480156103fe575f5ffd5b50610419600480360381019061041491906122c9565b6118b0565b005b6104236118c4565b005b60025f9054906101000a900473ffffffffffffffffffffffffffffffffffffffff1673ffffffffffffffffffffffffffffffffffffffff163373ffffffffffffffffffffffffffffffffffffffff16146104d9573360025f9054906101000a900473ffffffffffffffffffffffffffffffffffffffff166040517f1cf993f40000000000000000000000000000000000000000000000000000000081526004016104d09291906123fa565b60405180910390fd5b6104e4838383611c13565b505050565b6006805f015f9054906101000a900467ffffffffffffffff16905081565b60035f9054906101000a900473ffffffffffffffffffffffffffffffffffffffff1673ffffffffffffffffffffffffffffffffffffffff163373ffffffffffffffffffffffffffffffffffffffff161461058d576040517f82b4290000000000000000000000000000000000000000000000000000000000815260040160405180910390fd5b5f600760019054906101000a900467ffffffffffffffff1690505f60085f8367ffffffffffffffff1667ffffffffffffffff1681526020019081526020015f209050600260038111156105e3576105e2612136565b5b815f0160089054906101000a900460ff16600381111561060657610605612136565b5b1461063d576040517f8f8af25f00000000000000000000000000000000000000000000000000000000815260040160405180910390fd5b8060030160149054906101000a900460ff16610685576040517f3994881c00000000000000000000000000000000000000000000000000000000815260040160405180910390fd5b5f8160010180549050036106c5576040517fdff55bfb00000000000000000000000000000000000000000000000000000000815260040160405180910390fd5b5f600b5f8467ffffffffffffffff1667ffffffffffffffff1681526020019081526020015f205490505f5f90505f5f90505b83600101805490508110156107635783600101818154811061071c5761071b612421565b5b905f5260205f2090600202015f0160149054906101000a900467ffffffffffffffff1667ffffffffffffffff1682610754919061247b565b915080806001019150506106f7565b505f818361077191906124db565b90505f5f90505f5f5f90505b866001018054905081101561083c578660010181815481106107a2576107a1612421565b5b905f5260205f2090600202015f0160149054906101000a900467ffffffffffffffff1667ffffffffffffffff16836107da919061247b565b92508284101561082f578660010181815481106107fa576107f9612421565b5b905f5260205f2090600202015f015f9054906101000a900473ffffffffffffffffffffffffffffffffffffffff16915061083c565b808060010191505061077d565b505f73ffffffffffffffffffffffffffffffffffffffff168173ffffffffffffffffffffffffffffffffffffffff16036108ca578560010160018760010180549050610888919061250b565b8154811061089957610898612421565b5b905f5260205f2090600202015f015f9054906101000a900473ffffffffffffffffffffffffffffffffffffffff1690505b80866003015f6101000a81548173ffffffffffffffffffffffffffffffffffffffff021916908373ffffffffffffffffffffffffffffffffffffffff1602179055505f612710600460149054906101000a900461ffff1661ffff168860020154610934919061253e565b61093e919061257f565b90505f818860020154610951919061250b565b90505f60045f9054906101000a900473ffffffffffffffffffffffffffffffffffffffff1673ffffffffffffffffffffffffffffffffffffffff1683604051610999906125dc565b5f6040518083038185875af1925050503d805f81146109d3576040519150601f19603f3d011682016040523d82523d5f602084013e6109d8565b606091505b5050905080610a13576040517f90b8ec1800000000000000000000000000000000000000000000000000000000815260040160405180910390fd5b5f8473ffffffffffffffffffffffffffffffffffffffff1683604051610a38906125dc565b5f6040518083038185875af1925050503d805f8114610a72576040519150601f19603f3d011682016040523d82523d5f602084013e610a77565b606091505b5050905080610ab2576040517f90b8ec1800000000000000000000000000000000000000000000000000000000815260040160405180910390fd5b60038a5f0160086101000a81548160ff02191690836003811115610ad957610ad8612136565b5b02179055508473ffffffffffffffffffffffffffffffffffffffff168b67ffffffffffffffff167f4a718ebf869816f7f9308a6a613af7fca14da834d376a1d5535c0c61f216d1448c600201548787604051610b37939291906125f0565b60405180910390a36007600181819054906101000a900467ffffffffffffffff1680929190610b6590612625565b91906101000a81548167ffffffffffffffff021916908367ffffffffffffffff160217905550505f60075f6101000a81548160ff0219169083151502179055507f0d96ab57be55209ede92f653c2fe37232a9034af3e96bb1013125afbee1a2c7e8b600760019054906101000a900467ffffffffffffffff16604051610bec929190612654565b60405180910390a15050505050505050505050565b60045f9054906101000a900473ffffffffffffffffffffffffffffffffffffffff1681565b60035f9054906101000a900473ffffffffffffffffffffffffffffffffffffffff1673ffffffffffffffffffffffffffffffffffffffff163373ffffffffffffffffffffffffffffffffffffffff1614610cac576040517f82b4290000000000000000000000000000000000000000000000000000000000815260040160405180910390fd5b5f60085f600760019054906101000a900467ffffffffffffffff1667ffffffffffffffff1667ffffffffffffffff1681526020019081526020015f20905060016003811115610cfe57610cfd612136565b5b815f0160089054906101000a900460ff166003811115610d2157610d20612136565b5b14610d58576040517f8f8af25f00000000000000000000000000000000000000000000000000000000815260040160405180910390fd5b805f0160119054906101000a900467ffffffffffffffff1667ffffffffffffffff16421015610db3576040517f445cc3d300000000000000000000000000000000000000000000000000000000815260040160405180910390fd5b600281600101805490501015610df5576040517fdff55bfb00000000000000000000000000000000000000000000000000000000815260040160405180910390fd5b600160075f6101000a81548160ff0219169083151502179055506002815f0160086101000a81548160ff02191690836003811115610e3657610e35612136565b5b0217905550600760019054906101000a900467ffffffffffffffff1667ffffffffffffffff167fd206182599aa4b5cb6819c5513dbe323ad6310c04f52a94abf0d0ca33d8aec86826001018054905083600201548460040154604051610e9e9392919061267b565b60405180910390a250565b60075f9054906101000a900460ff1615610eef576040517f32e3b81600000000000000000000000000000000000000000000000000000000815260040160405180910390fd5b600554341015610f2b576040517fd312a68800000000000000000000000000000000000000000000000000000000815260040160405180910390fd5b5f600760019054906101000a900467ffffffffffffffff1690505f60085f8367ffffffffffffffff1667ffffffffffffffff1681526020019081526020015f20905081815f015f6101000a81548167ffffffffffffffff021916908367ffffffffffffffff1602179055506001815f0160086101000a81548160ff02191690836003811115610fbd57610fbc612136565b5b021790555042815f0160096101000a81548167ffffffffffffffff021916908367ffffffffffffffff16021790555060065f015f9054906101000a900467ffffffffffffffff16815f0160099054906101000a900467ffffffffffffffff1661102691906126b0565b815f0160116101000a81548167ffffffffffffffff021916908367ffffffffffffffff1602179055503481600201819055508060010160405180606001604052803373ffffffffffffffffffffffffffffffffffffffff1681526020013467ffffffffffffffff1681526020014267ffffffffffffffff16815250908060018154018082558091505060019003905f5260205f2090600202015f909190919091505f820151815f015f6101000a81548173ffffffffffffffffffffffffffffffffffffffff021916908373ffffffffffffffffffffffffffffffffffffffff1602179055506020820151815f0160146101000a81548167ffffffffffffffff021916908367ffffffffffffffff1602179055506040820151816001015f6101000a81548167ffffffffffffffff021916908367ffffffffffffffff16021790555050505f60025f9054906101000a900473ffffffffffffffffffffffffffffffffffffffff1673ffffffffffffffffffffffffffffffffffffffff16639b1c385e6040518060c001604052807f000000000000000000000000000000000000000000000000000000000000000081526020017f00000000000000000000000000000000000000000000000000000000000000008152602001600361ffff16815260200160095f9054906101000a900463ffffffff1663ffffffff168152602001600163ffffffff16815260200161124c60405180602001604052805f1515815250611d02565b8152506040518263ffffffff1660e01b815260040161126b919061282c565b6020604051808303815f875af1158015611287573d5f5f3e3d5ffd5b505050506040513d601f19601f820116820180604052508101906112ab9190612860565b905082600a5f8381526020019081526020015f205f6101000a81548167ffffffffffffffff021916908367ffffffffffffffff1602179055508267ffffffffffffffff16817fb9560bd3e25a95a3fcca6c0f21c6e8d9d07165bb54ae84dd553e21bbd94ce26260405160405180910390a33373ffffffffffffffffffffffffffffffffffffffff168367ffffffffffffffff167ff09c402c232e5856793a520a04c4a6511fac1259d801a9d5ecee52c492e1312b3460018660020154875f0160119054906101000a900467ffffffffffffffff1660016040516113929594939291906128c4565b60405180910390a3505050565b60015f9054906101000a900473ffffffffffffffffffffffffffffffffffffffff1673ffffffffffffffffffffffffffffffffffffffff163373ffffffffffffffffffffffffffffffffffffffff161461142e576040517f08c379a00000000000000000000000000000000000000000000000000000000081526004016114259061296f565b60405180910390fd5b5f5f5f9054906101000a900473ffffffffffffffffffffffffffffffffffffffff169050335f5f6101000a81548173ffffffffffffffffffffffffffffffffffffffff021916908373ffffffffffffffffffffffffffffffffffffffff1602179055505f60015f6101000a81548173ffffffffffffffffffffffffffffffffffffffff021916908373ffffffffffffffffffffffffffffffffffffffff1602179055503373ffffffffffffffffffffffffffffffffffffffff168173ffffffffffffffffffffffffffffffffffffffff167f8be0079c531659141344cd1fd0a4f28419497f9722a3daafe3b4186f6b6457e060405160405180910390a350565b6008602052805f5260405f205f91509050805f015f9054906101000a900467ffffffffffffffff1690805f0160089054906101000a900460ff1690805f0160099054906101000a900467ffffffffffffffff1690805f0160119054906101000a900467ffffffffffffffff1690806002015490806003015f9054906101000a900473ffffffffffffffffffffffffffffffffffffffff16908060030160149054906101000a900460ff16908060040154905088565b5f5f5f9054906101000a900473ffffffffffffffffffffffffffffffffffffffff16905090565b6116126115e3565b73ffffffffffffffffffffffffffffffffffffffff163373ffffffffffffffffffffffffffffffffffffffff161415801561169a575060025f9054906101000a900473ffffffffffffffffffffffffffffffffffffffff1673ffffffffffffffffffffffffffffffffffffffff163373ffffffffffffffffffffffffffffffffffffffff1614155b1561170857336116a86115e3565b60025f9054906101000a900473ffffffffffffffffffffffffffffffffffffffff166040517f061db9c10000000000000000000000000000000000000000000000000000000081526004016116ff9392919061298d565b60405180910390fd5b5f73ffffffffffffffffffffffffffffffffffffffff168173ffffffffffffffffffffffffffffffffffffffff160361176d576040517fd92e233d00000000000000000000000000000000000000000000000000000000815260040160405180910390fd5b8060025f6101000a81548173ffffffffffffffffffffffffffffffffffffffff021916908373ffffffffffffffffffffffffffffffffffffffff1602179055507fd1a6a14209a385a964d036e404cb5cfb71f4000cdb03c9366292430787261be6816040516117dc9190612286565b60405180910390a150565b60055481565b600b602052805f5260405f205f915090505481565b600760019054906101000a900467ffffffffffffffff1681565b60025f9054906101000a900473ffffffffffffffffffffffffffffffffffffffff1681565b600a602052805f5260405f205f915054906101000a900467ffffffffffffffff1681565b600460149054906101000a900461ffff1681565b60035f9054906101000a900473ffffffffffffffffffffffffffffffffffffffff1681565b60075f9054906101000a900460ff1681565b6118b8611d9a565b6118c181611e2a565b50565b60075f9054906101000a900460ff161561190a576040517f32e3b81600000000000000000000000000000000000000000000000000000000815260040160405180910390fd5b600554341015611946576040517fd312a68800000000000000000000000000000000000000000000000000000000815260040160405180910390fd5b5f60085f600760019054906101000a900467ffffffffffffffff1667ffffffffffffffff1667ffffffffffffffff1681526020019081526020015f2090506001600381111561199857611997612136565b5b815f0160089054906101000a900460ff1660038111156119bb576119ba612136565b5b146119f2576040517f8f8af25f00000000000000000000000000000000000000000000000000000000815260040160405180910390fd5b805f0160119054906101000a900467ffffffffffffffff1667ffffffffffffffff164210611a4c576040517ff14ef95700000000000000000000000000000000000000000000000000000000815260040160405180910390fd5b34816002015f828254611a5f919061247b565b925050819055508060010160405180606001604052803373ffffffffffffffffffffffffffffffffffffffff1681526020013467ffffffffffffffff1681526020014267ffffffffffffffff16815250908060018154018082558091505060019003905f5260205f2090600202015f909190919091505f820151815f015f6101000a81548173ffffffffffffffffffffffffffffffffffffffff021916908373ffffffffffffffffffffffffffffffffffffffff1602179055506020820151815f0160146101000a81548167ffffffffffffffff021916908367ffffffffffffffff1602179055506040820151816001015f6101000a81548167ffffffffffffffff021916908367ffffffffffffffff16021790555050503373ffffffffffffffffffffffffffffffffffffffff16600760019054906101000a900467ffffffffffffffff1667ffffffffffffffff167ff09c402c232e5856793a520a04c4a6511fac1259d801a9d5ecee52c492e1312b3484600101805490508560020154865f0160119054906101000a900467ffffffffffffffff165f604051611c089594939291906129c2565b60405180910390a350565b5f600a5f8581526020019081526020015f205f9054906101000a900467ffffffffffffffff1690505f60085f8367ffffffffffffffff1667ffffffffffffffff1681526020019081526020015f20905083835f818110611c7657611c75612421565b5b90506020020135600b5f8467ffffffffffffffff1667ffffffffffffffff1681526020019081526020015f208190555060018160030160146101000a81548160ff0219169083151502179055508167ffffffffffffffff16857fe3e452ff947e18cea0f62f23d405e522ac808f69346c5f59ddc4bd722ac10d0360405160405180910390a35050505050565b60607f92fd13387c7fe7befbc38d303d6468778fb9731bc4583f17d92989c6fcfdeaaa82604051602401611d369190612a3c565b604051602081830303815290604052907bffffffffffffffffffffffffffffffffffffffffffffffffffffffff19166020820180517bffffffffffffffffffffffffffffffffffffffffffffffffffffffff83818316178352505050509050919050565b5f5f9054906101000a900473ffffffffffffffffffffffffffffffffffffffff1673ffffffffffffffffffffffffffffffffffffffff163373ffffffffffffffffffffffffffffffffffffffff1614611e28576040517f08c379a0000000000000000000000000000000000000000000000000000000008152600401611e1f90612a9f565b60405180910390fd5b565b3373ffffffffffffffffffffffffffffffffffffffff168173ffffffffffffffffffffffffffffffffffffffff1603611e98576040517f08c379a0000000000000000000000000000000000000000000000000000000008152600401611e8f90612b07565b60405180910390fd5b8060015f6101000a81548173ffffffffffffffffffffffffffffffffffffffff021916908373ffffffffffffffffffffffffffffffffffffffff1602179055508073ffffffffffffffffffffffffffffffffffffffff165f5f9054906101000a900473ffffffffffffffffffffffffffffffffffffffff1673ffffffffffffffffffffffffffffffffffffffff167fed8889f560326eb138920d842192f0eb3dd22b4f139c87a2c57538e05bae127860405160405180910390a350565b5f5ffd5b5f5ffd5b5f819050919050565b611f6f81611f5d565b8114611f79575f5ffd5b50565b5f81359050611f8a81611f66565b92915050565b5f5ffd5b5f5ffd5b5f5ffd5b5f5f83601f840112611fb157611fb0611f90565b5b8235905067ffffffffffffffff811115611fce57611fcd611f94565b5b602083019150836020820283011115611fea57611fe9611f98565b5b9250929050565b5f5f5f6040848603121561200857612007611f55565b5b5f61201586828701611f7c565b935050602084013567ffffffffffffffff81111561203657612035611f59565b5b61204286828701611f9c565b92509250509250925092565b5f67ffffffffffffffff82169050919050565b61206a8161204e565b82525050565b5f6020820190506120835f830184612061565b92915050565b5f73ffffffffffffffffffffffffffffffffffffffff82169050919050565b5f6120b282612089565b9050919050565b6120c2816120a8565b82525050565b5f6020820190506120db5f8301846120b9565b92915050565b6120ea8161204e565b81146120f4575f5ffd5b50565b5f81359050612105816120e1565b92915050565b5f602082840312156121205761211f611f55565b5b5f61212d848285016120f7565b91505092915050565b7f4e487b71000000000000000000000000000000000000000000000000000000005f52602160045260245ffd5b6004811061217457612173612136565b5b50565b5f81905061218482612163565b919050565b5f61219382612177565b9050919050565b6121a381612189565b82525050565b6121b281611f5d565b82525050565b5f6121c282612089565b9050919050565b6121d2816121b8565b82525050565b5f8115159050919050565b6121ec816121d8565b82525050565b5f819050919050565b612204816121f2565b82525050565b5f6101008201905061221e5f83018b612061565b61222b602083018a61219a565b6122386040830189612061565b6122456060830188612061565b61225260808301876121a9565b61225f60a08301866121c9565b61226c60c08301856121e3565b61227960e08301846121fb565b9998505050505050505050565b5f6020820190506122995f8301846121c9565b92915050565b6122a8816121b8565b81146122b2575f5ffd5b50565b5f813590506122c38161229f565b92915050565b5f602082840312156122de576122dd611f55565b5b5f6122eb848285016122b5565b91505092915050565b5f6020820190506123075f8301846121a9565b92915050565b5f819050919050565b5f61233061232b61232684612089565b61230d565b612089565b9050919050565b5f61234182612316565b9050919050565b5f61235282612337565b9050919050565b61236281612348565b82525050565b5f60208201905061237b5f830184612359565b92915050565b5f6020828403121561239657612395611f55565b5b5f6123a384828501611f7c565b91505092915050565b5f61ffff82169050919050565b6123c2816123ac565b82525050565b5f6020820190506123db5f8301846123b9565b92915050565b5f6020820190506123f45f8301846121e3565b92915050565b5f60408201905061240d5f8301856121c9565b61241a60208301846121c9565b9392505050565b7f4e487b71000000000000000000000000000000000000000000000000000000005f52603260045260245ffd5b7f4e487b71000000000000000000000000000000000000000000000000000000005f52601160045260245ffd5b5f61248582611f5d565b915061249083611f5d565b92508282019050808211156124a8576124a761244e565b5b92915050565b7f4e487b71000000000000000000000000000000000000000000000000000000005f52601260045260245ffd5b5f6124e582611f5d565b91506124f083611f5d565b925082612500576124ff6124ae565b5b828206905092915050565b5f61251582611f5d565b915061252083611f5d565b92508282039050818111156125385761253761244e565b5b92915050565b5f61254882611f5d565b915061255383611f5d565b925082820261256181611f5d565b915082820484148315176125785761257761244e565b5b5092915050565b5f61258982611f5d565b915061259483611f5d565b9250826125a4576125a36124ae565b5b828204905092915050565b5f81905092915050565b50565b5f6125c75f836125af565b91506125d2826125b9565b5f82019050919050565b5f6125e6826125bc565b9150819050919050565b5f6060820190506126035f8301866121a9565b61261060208301856121a9565b61261d60408301846121a9565b949350505050565b5f61262f8261204e565b915067ffffffffffffffff82036126495761264861244e565b5b600182019050919050565b5f6040820190506126675f830185612061565b6126746020830184612061565b9392505050565b5f60608201905061268e5f8301866121a9565b61269b60208301856121a9565b6126a860408301846121fb565b949350505050565b5f6126ba8261204e565b91506126c58361204e565b9250828201905067ffffffffffffffff8111156126e5576126e461244e565b5b92915050565b6126f4816121f2565b82525050565b61270381611f5d565b82525050565b612712816123ac565b82525050565b5f63ffffffff82169050919050565b61273081612718565b82525050565b5f81519050919050565b5f82825260208201905092915050565b8281835e5f83830152505050565b5f601f19601f8301169050919050565b5f61277882612736565b6127828185612740565b9350612792818560208601612750565b61279b8161275e565b840191505092915050565b5f60c083015f8301516127bb5f8601826126eb565b5060208301516127ce60208601826126fa565b5060408301516127e16040860182612709565b5060608301516127f46060860182612727565b5060808301516128076080860182612727565b5060a083015184820360a086015261281f828261276e565b9150508091505092915050565b5f6020820190508181035f83015261284481846127a6565b905092915050565b5f8151905061285a81611f66565b92915050565b5f6020828403121561287557612874611f55565b5b5f6128828482850161284c565b91505092915050565b5f819050919050565b5f6128ae6128a96128a48461288b565b61230d565b611f5d565b9050919050565b6128be81612894565b82525050565b5f60a0820190506128d75f8301886121a9565b6128e460208301876128b5565b6128f160408301866121a9565b6128fe6060830185612061565b61290b60808301846121e3565b9695505050505050565b5f82825260208201905092915050565b7f4d7573742062652070726f706f736564206f776e6572000000000000000000005f82015250565b5f612959601683612915565b915061296482612925565b602082019050919050565b5f6020820190508181035f8301526129868161294d565b9050919050565b5f6060820190506129a05f8301866121c9565b6129ad60208301856121c9565b6129ba60408301846121c9565b949350505050565b5f60a0820190506129d55f8301886121a9565b6129e260208301876121a9565b6129ef60408301866121a9565b6129fc6060830185612061565b612a0960808301846121e3565b9695505050505050565b612a1c816121d8565b82525050565b602082015f820151612a365f850182612a13565b50505050565b5f602082019050612a4f5f830184612a22565b92915050565b7f4f6e6c792063616c6c61626c65206279206f776e6572000000000000000000005f82015250565b5f612a89601683612915565b9150612a9482612a55565b602082019050919050565b5f6020820190508181035f830152612ab681612a7d565b9050919050565b7f43616e6e6f74207472616e7366657220746f2073656c660000000000000000005f82015250565b5f612af1601783612915565b9150612afc82612abd565b602082019050919050565b5f6020820190508181035f830152612b1e81612ae5565b905091905056fea2646970667358221220ef2fc9c9766267cc5cad086cb5657a0da3641a435fded262881a06873a10bc5864736f6c634300081e0033","linkReferences":{}},"methodIdentifiers":{"acceptOwnership()":"79ba5097","authority()":"bf7e214f","betsLocked()":"c259be9b","closeBettingWindow()":"671fe725","createGame()":"7255d729","currentRoundId()":"9cbe5efd","gameDurationConfig()":"3614cadf","gameRounds(uint64)":"8245acea","houseFeeBasisPoints()":"ace83eae","minBet()":"9619367d","owner()":"8da5cb5b","placeBet()":"f90f4560","rawFulfillRandomWords(uint256,uint256[])":"1fe543e3","s_roundToRandomWord(uint64)":"9bf7fea2","s_vrfCoordinator()":"9eccacf6","s_vrfRequestIdToRoundId(uint256)":"a9e5315e","selectWinnerAndPayout()":"5dcb9e67","setCoordinator(address)":"8ea98117","transferOwnership(address)":"f2fde38b","treasury()":"61d027b3"},"id":27}